:0900000002004EC0D0C0E0413006
:06000B00C0D0C0E0A11C02
:09001300C0D0C0E0C08341653299
:10002300C0D0C0E075D01881E403020007C2961166
:1000330045D2967827B6411308B6540F08B64D0B30
:10004300018579287849D8FED9FA227590FF758100
:100053006F75D00011457827764108765408764DA0
:100063007598507589211207B075885578027936CD
:10007300E4F608D9FC7E06919475B80175A89775C6
:10008300907F511A7E0011FEBDE10C780511FED858
:10009300FCC2AAD21080EDC3ED948450E530100C5D
:1000A300C213C210900000F0D2AA80D6ED90072AA6
:1000B3009360D1FF3011034307808F1714FDE521AF
:1000C300701AED9006C293F931307860790874FFA5
:1000D3005608D9FC641F541FC2136002D213EAF9F5
:1000E300D215ED23FD90060C201104936001FAED67
:1000F3000493FD3166C2150187511AC211E51070D0
:1001030016E51160FC751F03E510700BE51F70F811
:10011300F510F511FE80E4FD751000B4E0047E01D6
:1001230080DBB4F004D21180D40460CD22E930E343
:1001330006740178003159E930E706740278073113
:1001430059E95407700122F8E4D333D8FDC0E0E93C
:10015300C45407F8D0E043006030110346F622F49C
:1001630056F622ED700122540370342011F8ED5439
:100173000C7058ED54307065ED20E61C30E7E7EB6A
:100183004C5406B40605BA2EDD0130BE010DEFC393
:10019300944790071D93FA22EE60CB4302802253CB
:1001A300077FB4034C74017E00BF36027E01301119
:1001B3000AF4BE0103520422520322BE010FB4010A
:1001C30006EB5401700F044204801A802BB4011310
:1001D300EC5401600C7A7AF452035204228030808A
:1001E3009774014203EB4C5406B406F3BF531F014B
:1001F30030B401BA740480B62011E4B40C06BE0115
:10020300037A6F220303FD740823DDFD620322B426
:10021300200280D1B430F774FF78607908F608D9EA
:10022300FCE4C213F511F510FAFBFCFE2275D010A5
:10023300A2B5E9600F1460101460187900EDF8D0CE
:10024300E0D0D0327E088005ED13FDDE0109D0E059
:10025300D0D032ED400720D0F47DFF80F030D0EDD8
:1002630080F775D00830B46274FF758301F0D297BC
:1002730020B4FDC297E4C213F506F510F511FFF99A
:10028300800DF5200583E5217057201309E0F0D098
:1002930083D0E0D0D03214200002556020010255F3
:1002A3006120020255622003025563200402556453
:1002B300200502556520060255662007025567FC96
:1002C300E05CF0D083D0E0D0D032758300E0BF0093
:1002D30049B455AE0F74AA0583F0D083D0E0D0D0D3
:1002E30032B40112E501201505E502750200F0D0D4
:1002F30083D0E0D0D032B40214E52023235403602A
:10030300E32402F9E7F0D083D0E0D0D032E51775CB
:100313001700F0D083D0E0D0D032FEBF010D2323ED
:100323005403FDEE543F700261FFFBBB0255BD0059
:1003330014E51D600E14F51DA81CE608B8600278CC
:1003430032881C8101BD011BE524549EF524E51D63
:100353006002D220E51EB40804E5248101E52444AB
:10036300608101BD02197D00E59020E1027D308DA1
:100373002320E002D21F20E202D21EE5238101E501
:100383001D8101BB034CBF01050F74FF8103BD0039
:1003930025E51E601420E30304F51EA826EEF608E7
:1003A300B83202782A882661FF8E9904F51E742AD2
:1003B300F525F52661FFBD010DEE232323F4541823
:1003C3004467F59061FFBD02048E2461FF1204941B
:1003D30061FFBB010BC08290002CED93D082801E85
:1003E300BB070B7860790876FF08D9FB800EBB0842
:1003F3001ABF0266EE5403F52175020074FF7F00F5
:10040300758301F0D083D0E0D0D032BB0906ED0470
:10041300F8E680EABB0A0543038080E0BB0B055383
:10042300037F80D8BB0C04D21080D1BB0D020130F6
:10043300BB1006746991818103BB110674699187AE
:100443008103BB1206746C91818103BB1306746C28
:1004530091878103BB140DBF01050F74FF8103EE68
:10046300429061FFBB1509BF02F0EEF4529061FFA9
:10047300BB1604E5B08101BB17F4E59081012DF8AB
:10048300E67F0022BF02062DF8EEF67FFF74FF0F12
:1004930022EE603BC39404EE4021B406047404804E
:1004A3001AB40C0474058013B418047406800CB4D5
:1004B300300474078005B460167408C0829007B7CF
:1004C3009375878010E703758700F4F58DD08274E8
:1004D3002AF525F5267432F51CF519E4F51DF51EEC
:1004E3002210981CC299EE602B1EEE6027C2AFA8A3
:1004F30025E6F59908B83202782A8825D2AF801408
:10050300BD2E071D0CBC60027C32E599F70D09B9BD
:1005130060027932D0E0D0D03275D018EF60011F7D
:10052300D5684F756832786906B63C46760008068A
:10053300B63C3F76000806B6183876000806E6FA99
:1005430008E6C082C0839005FF93D083D082B602B1
:100553000C08FBE6181340041340010BEBC39A503D
:10056300111876010806B60D0976010806B664026D
:0A05730076001207B0D0E0D0D032BD
:100600001F1C1F1E1F1E1F1F1E1F1E1F1B00310031
:10061000320033003400350036003700380039002E
:1006200030002D003D000800090051005700450032
:10063000520054005900550049004F0050005B0023
:100640005D000DC000024100530044004600470019
:1006500048004A004B004C003B00270060000003AC
:100660005C005A0058004300560042004E004D0006
:100670002C002E002F400003AA00000120000004DF
:100680006100620063006400650066006700680046
:1006900069006A000008000C3780388039802D809E
:1006A0003480358036802B803180328033803080BA
:1006B0002E800000000000306B006C000000000085
:1006C00000003931323334354544434241E4E24994
:1006D0003B21222324255554535251D5D4618811EE
:1006E0001213141565646362D2D191089202030457
:1006F00005757473F4F38580F53C713AB1B2B3B407
:10070000B5C5C4C3C2C100003C4C3DE43D354BE31C
:100710004A4D4B8449000000E59400000076707457
:10072000AD72B573AB77717578790043003F3D3B8F
:100730003C58004442403E0F290000382A001D105A
:10074000020000002C1F1E110300002E2D20120598
:10075000040000392F211413060000313023221524
:100760000700000032241608090000332517180B73
:100770000A000034352627190C00000028001A0D45
:1007800000003A361C1B002B000000000000000097
:100790000E00004F004B470000005253504C4D4894
:0E07A0000145574E514A3749460000000041BE
:0707B000758CD2758A6E22E0
:1007B8008080800083038E0E0D0A436F7079726902
:1007C80067687420284329203139393520486F6EED
:1007D800657920536F66740D0A20204154204B65BB
:1007E80079626F617264204472697665722056334B
:0807F8002E3230370D0A00FF1C
:00000001FF
